:100000000C94AB000C9436070C940F070C94D3009F
:100010000C94D3000C94D3000C94D3000C94D30014
:100020000C94D3000C94C5060C94D3000C94830755
:100030000C945D070C94D3000C94D3000C94D30063
:100040000C94D3000C94D3000C94D3000C94D300E4
:100050000C94D30007634236B79BD8A71A39685669
:1000600018AEBAAB558C1D3CB7CC5763BD6DEDFDDA
:10007000753EF6177231BF000000803F0800000097
:10008000BE922449123EABAAAA2ABECDCCCC4C3E8D
:1000900000000080BEABAAAAAA3E00000000BF007C
:1000A0000000803F0000000000084178D3BB438778
:1000B000D1133D190E3CC3BD4282AD2B3E68EC828C
:1000C00076BED98FE1A93E4C80EFFFBE01C4FF7F11
:1000D0003F000000000000003A003700340031000B
:1000E00000003B00380035003200000039003600C7
:1000F000330030000202020202020202040404047D
:1001000004040404030303030303030301010101C3
:1001100001010101010204081020408001020408CD
:1001200010204080010204081020408001020408D1
:1001300010204080000000020000000000000000CD
:10014000050400070000000000000000000000009F
:1001500000000000B50711241FBECFE5D4E0DEBFCC
:10016000CDBF11E0A0E6B0E0ECE2F5E202C0059000
:100170000D92A63BB107D9F722E0A6EBB1E001C092
:100180001D92A939B207E1F710E0CBEAD0E004C034
:100190002197FE010E943911CA3AD107C9F70E947E
:1001A000FB070C9494120C9400000000000083E004
:1001B00090E00197F1F70895843059F028F48130E8
:1001C00099F0823089F00895853039F0873041F018
:1001D00008958FB58F778FBD08958FB58F7DFBCF35
:1001E00085B58F7D85BD089583B78F7D83BF0895C5
:1001F000CF93DF93282F30E0F901EC5CFE4F849120
:10020000F901EC5EFE4FD491F901EC50FF4FC4911F
:10021000CC23A1F081110E94DC00EC2FF0E0EE0F66
:10022000FF1FE651FF4FA591B491EC91ED2381E0C2
:1002300090E009F480E0DF91CF91089580E090E0B4
:10024000FACF1F93CF93DF93282F30E0F901EC5CB6
:10025000FE4F8491F901EC5EFE4FD491F901EC5010
:10026000FF4FC491CC23A9F0162F81110E94DC000E
:10027000EC2FF0E0EE0FFF1FE052FF4FA591B4917D
:100280008FB7F894EC91111108C0D095DE23DC9360
:100290008FBFDF91CF911F910895DE2BF8CF1F9371
:1002A000CF93DF93D82F162FC0E060E080917F02BC
:1002B0000E9421010E94D50061E0D7FF60E080919B
:1002C00081020E94210161E080917F020E94210150
:1002D0000E94D500DD0FCF5F1C13E7CFDF91CF91D8
:1002E0001F9108950F931F93CF93DF93082F162F1D
:1002F000CDE7D2E060E088810E94210163E080EADE
:100300000E944F0166E0802F880F880F0E944F01E6
:1003100068E0812F0E944F0161E08881DF91CF91D9
:100320001F910F910C942101CF93C0E060E08C2FBE
:100330000E947201CE5FC032C9F7CF910895CF936A
:10034000DF93CDE7D2E06E8580E00E9472016D857B
:1003500082E00E9472016C8584E00E9472016B85CC
:1003600086E00E9472016A8588E00E9472016985B8
:100370008AE0DF91CF910C9472011F93CF93DF93AA
:10038000182FCDE7D2E060E088810E94210164E06F
:1003900080E80E944F0168E0812F0E944F0161E0D8
:1003A0008881DF91CF911F910C942101CF93DF932E
:1003B00090E0FC01EC5EFE4F24918C509F4FFC01BD
:1003C00084918823D1F090E0880F991FFC01EA52B4
:1003D000FF4FA591B491FC01E052FF4FC591D4911C
:1003E00061110EC09FB7F8948C91E22FE0958E2397
:1003F0008C932881E223E8839FBFDF91CF910895FA
:100400008FB7F894EC91E22BEC938FBFF6CF3FB708
:10041000F8948091CF019091D001A091D101B09139
:10042000D20122B708B600FE05C02F3F19F0019691
:10043000A11DB11D3FBFBA2FA92F982F8827BC013E
:10044000CD01620F711D811D911D43E0660F771F65
:10045000881F991F4A95D1F708958F929F92AF9266
:10046000BF92CF92DF92EF92FF926B017C010E94CC
:1004700007024B015C01C114D104E104F104B9F09D
:100480000E940702681979098A099B09683E73402E
:100490008105910580F321E0C21AD108E108F10835
:1004A00088EE880E83E0981EA11CB11CE4CFFF905B
:1004B000EF90DF90CF90BF90AF909F908F90089576
:1004C0000895AF92BF92CF92DF92EF92FF920F9377
:1004D0001F93CF93DF936C017B018B01040F151FDA
:1004E000EB015E01AE18BF08C017D10759F0699142
:1004F000D601ED91FC910190F081E02DC6010995A6
:10050000892B79F7C501DF91CF911F910F91FF9052
:10051000EF90DF90CF90BF90AF900895FC01538D86
:10052000448D252F30E0842F90E0821B930B5417CD
:1005300010F0CF96089501970895FC01918D828D5A
:10054000981761F0A28DAE0FBF2FB11D5D968C91F3
:10055000928D9F5F9F73928F90E008958FEF9FEF32
:100560000895FC01918D828D981731F0828DE80FEE
:10057000F11D858D90E008958FEF9FEF0895FC01A8
:10058000918D228D892F90E0805C9F4F821B910975
:100590008F739927089583ED91E00E94BF0221E0B7
:1005A000892B09F420E0822F089580E090E0892BC8
:1005B00029F00E94CB0281110C9400000895FC01E7
:1005C000A48DA80FB92FB11DA35ABF4F2C91848DB4
:1005D00090E001968F739927848FA689B7892C9311
:1005E000A089B1898C9182748C93938D848D98139A
:1005F00006C00288F389E02D80818F7D8083089575
:10060000EF92FF920F931F93CF93DF93EC0181E062
:10061000888F9B8D8C8D981319C0E889F98980810A
:1006200085FF14C09FB7F894EE89FF896083E8893D
:10063000F9898081827480839FBF81E090E0DF919F
:10064000CF911F910F91FF90EF900895F62E0B8D93
:1006500010E00F5F1F4F0F731127E02E8C8D8E114E
:100660000CC00FB607FCFACFE889F989808185FFB5
:10067000F5CFCE010E94DF02F1CFEB8DEC0FFD2F05
:10068000F11DE35AFF4FF0829FB7F8940B8FEA8970
:10069000FB8980818062CFCFCF93DF93EC01888D7F
:1006A0008823B9F0AA89BB89E889F9898C9185FDED
:1006B00003C0808186FD0DC00FB607FCF7CF8C917B
:1006C00085FFF2CF808185FFEDCFCE010E94DF0252
:1006D000E9CFDF91CF9108950895FF920F931F9373
:1006E000CF93DF93F82E062FC7E0D0E010E061E053
:1006F000802F0E9421018F2D0E94F8000C2E01C036
:10070000880F0A94EAF7182B60E0802F0E942101DD
:10071000219768F7812FDF91CF911F910F91FF9063
:100720000895EF92FF920F931F93CF93DF938091E1
:1007300073020E94F800892B31F060E070E0CB0179
:100740000E942D02F4CFDFB7F8946091720280917D
:1007500073020E946D03082F6091720280917302F0
:100760000E946D03C82F60917202809173020E94F3
:100770006D03182FF12CE12C809174028E151F044B
:1007800079F070F061E0809172020E94210160E0D6
:10079000809172020E9421018FEFE81AF80AECCFD3
:1007A000DFBF6C2F70E090E080E0982F872F762FCE
:1007B0006627802B612B000F000B10E030E020E05B
:1007C000302F222711270027602B712B822B932B90
:1007D000DF91CF911F910F91FF90EF900895CF92ED
:1007E000DF92EF92FF92CF93DF93C82FC12CD12CD1
:1007F0007601D0E00E949103C60ED71EE81EF91EB6
:1008000060E070E0CB010E942D02DF5FCD13F2CFDC
:100810002C2F30E050E040E0C701B6010E941A11D1
:10082000CA01B901DF91CF91FF90EF90DF90CF9097
:1008300008958AE00E94EF030E944C0E0E94140E5D
:10084000609375027093760280937702909378029A
:10085000089585B78F7B85BF86E00E94BD010E9409
:10086000940160E0809172020E9421010E941904AB
:100870006AEF70E080E090E00C942D020F931F93DC
:10088000CF93DF930E94EF03C0E7D2E00D811E817A
:100890002F813885601B710B820B930B0E944C0ECD
:1008A00029853A854B855C850E94A20DDF91CF9109
:1008B0001F910F9108954F925F926F927F92AF9226
:1008C000BF92CF92DF92EF92FF920F931F93CF933D
:1008D000DF9300D000D000D01F92CDB7DEB78901E2
:1008E0006B017C0181E6C81689E7D8068EEFE80621
:1008F0008FEFF80644F491E6C92E99E7D92E9EEFC2
:10090000E92EFF24FA9490E4C91692E4D9069FE0F8
:10091000E906F1043CF08FE3C82E82E4D82E8FE084
:10092000E82EF12CFF92EF92DF92CF925F934F93DC
:100930001F9287E08F93FE0131965F01FF93EF9343
:100940000E9464120FB6F894DEBF0FBECDBF101622
:1009500011068CF5B801012E000C880B990B0E9432
:100960004C0E9B01AC0160E070E080E291E40E94DB
:100970006E0F2B013C01C701B6010E944C0EA30172
:1009800092010E949D0D87FF16C0F50185E090E061
:10099000801B910B20E2AF014A195B0948175907E8
:1009A00054F4DF013181303331F431963C913D32E2
:1009B00011F02C93F0CF26E832E0D501AE01495F6B
:1009C0005F4FF90181919F018078ED91EA5290E0AB
:1009D000E33520F4F0E0E459FF4F9081F9013197BD
:1009E000892B8083A417B50761F70E949F01279682
:1009F0000FB6F894DEBF0FBECDBFDF91CF911F9130
:100A00000F91FF90EF90DF90CF90BF90AF907F90CD
:100A10006F905F904F900895FC0101900020E9F7DE
:100A20003197AF01481B590BBC0183ED91E00C9449
:100A300061028F929F92AF92BF920F931F93CF93B9
:100A4000DF93CDB7DEB7A1970FB6F894DEBF0FBE28
:100A5000CDBF19A2423008F44AE08E010F5D1F4F4E
:100A6000842E912CB12CA12CA50194010E94F81088
:100A7000E62FB901CA01EA30F4F4E05DD801EE9343
:100A80008D01232B242B252B79F790E080E0109704
:100A900019F0CD010E940C05A1960FB6F894DEBFA7
:100AA0000FBECDBFDF91CF911F910F91BF90AF903F
:100AB0009F908F900895E95CE1CFCF93DF930E94E0
:100AC0000C05EC0189ED90E00E940C058C0F9D1F38
:100AD000DF91CF9108954F925F926F927F928F92A4
:100AE0009F92AF92BF92CF92DF92EF92FF920F93BD
:100AF0001F93CF936B017C01742EAC019B010E946C
:100B0000BE0F882399F08CED90E0CF911F910F914B
:100B1000FF90EF90DF90CF90BF90AF909F908F901D
:100B20007F906F905F904F900C940C054601570199
:100B3000E894B7F82FEF3FEF4FE75FE7C501B40147
:100B40000E94BE0F81110DC02FEF3FEF4FE75FE70F
:100B5000C501B4010E949D0D18161CF480EE90E0B2
:100B6000D4CF2FEF3FEF4FE75FE4C701B6010E94FC
:100B7000FC0E18161CF484EE90E0C7CF2FEF3FEF69
:100B80004FE75FECC701B6010E949D0D87FDF3CFD3
:100B900020E030E0A901C701B6010E949D0D10E0E0
:100BA00000E087FF0AC06DE283ED91E00E94000340
:100BB0008C01F7FAF094F7F8F094C0E060E070E090
:100BC00080E09FE37C1641F020E030E040E251E419
:100BD0000E94A20DCF5FF6CFA70196010E94310DB2
:100BE0002B013C010E941B0E4B015C014AE00E945C
:100BF00019057C01E00EF11ECC23C1F1C501B40141
:100C00000E944A0E9B01AC01C301B2010E94300D4B
:100C10004B015C016EE283ED91E00E940003E80E5F
:100C2000F91EC15018F120E030E040E251E4C50166
:100C3000B4010E94010F2B013C010E941B0E4B01CD
:100C4000B12CA12C4AE0C501B4010E941905E80E9F
:100C5000F91EC501B4010E944A0E9B01AC01C301FB
:100C6000B2010E94300D4B015C01DBCFC701CF9177
:100C70001F910F91FF90EF90DF90CF90BF90AF90BA
:100C80009F908F907F906F905F904F900895CF933B
:100C9000DF930E946B05EC0189ED90E00E940C054A
:100CA0008C0F9D1FDF91CF9108950C940C05CF926E
:100CB000DF92EF92FF92CF93DF936B017C01F7FEFF
:100CC0001FC06DE283ED91E00E940003EC016627F6
:100CD0007727CB016C197D098E099F094AE00E9494
:100CE0001905C80FD91F89ED90E00E940C058C0FE3
:100CF0009D1FDF91CF91FF90EF90DF90CF900895EF
:100D00004AE00E941905EC01EECFCF93DF93EC018E
:100D1000FC0101900020E9F73197AF01481B590B06
:100D2000A6E8B2E030E020E09C9190789D93E0E26C
:100D30002417350724F4FE01E20FF31FE081EA5285
:100D400080E0E33520F4F0E0E459FF4F8081FD01BD
:100D50003197982B90832F5F3F4F2630310521F735
:100D6000809189028F778093890280918A028F77A0
:100D700080938A0280918B028F7780938B02DF9120
:100D8000CF910C949F010C94DB111F920F920FB620
:100D90000F9211242F933F938F939F93AF93BF9301
:100DA0008091CB019091CC01A091CD01B091CE0169
:100DB0003091CA0126E0230F2D3768F129E8230F6F
:100DC0000396A11DB11D2093CA018093CB0190937E
:100DD000CC01A093CD01B093CE018091CF01909131
:100DE000D001A091D101B091D2010196A11DB11DF8
:100DF0008093CF019093D001A093D101B093D20101
:100E0000BF91AF919F918F913F912F910F900FBE06
:100E10000F901F9018950296A11DB11DD4CF1F925F
:100E20000F920FB60F9211242F933F934F935F931E
:100E30006F937F938F939F93AF93BF93EF93FF93A2
:100E4000E0916200F09163000995FF91EF91BF91ED
:100E5000AF919F918F917F916F915F914F913F9152
:100E60002F910F900FBE0F901F9018951F920F9209
:100E70000FB60F9211242F933F934F935F936F936D
:100E80007F938F939F93AF93BF93EF93FF93E091E3
:100E90006000F09161000995FF91EF91BF91AF91D2
:100EA0009F918F917F916F915F914F913F912F9182
:100EB0000F900FBE0F901F9018951F920F920FB6B4
:100EC0000F9211242F933F934F935F936F937F93D0
:100ED0008F939F93AF93BF93EF93FF9383ED91E035
:100EE0000E94DF02FF91EF91BF91AF919F918F918F
:100EF0007F916F915F914F913F912F910F900FBE16
:100F00000F901F9018951F920F920FB60F921124F9
:100F10002F938F939F93EF93FF93E091E301F091D1
:100F2000E4018081E091E901F091EA0182FD1BC0BA
:100F300090818091EC018F5F8F732091ED0182177A
:100F400041F0E091EC01F0E0ED52FE4F958F80937F
:100F5000EC01FF91EF919F918F912F910F900FBE18
:100F60000F901F9018958081F4CFE3EDF1E013828C
:100F7000128288EE93E0A0E0B0E084839583A6839C
:100F8000B78383EC90E09183808380E490E0958741
:100F9000848729E230E0378726872BE230E0318BE7
:100FA000208B2AE230E0338B228B958B848B8CE272
:100FB00090E0978B868B118E128E138E148EEDE738
:100FC000F2E0118612861386148615861686178619
:100FD000E0E7F2E085ED90E0918380831582168250
:100FE0001782108680E090E0A0E8BFE381879287B7
:100FF000A387B4870895789483B7836083BF83B74A
:10100000886483BF89B7816089BFC2E0CEBD8EB5D9
:1010100081608EBD8FB581608FBD85B5846085BDD3
:1010200085B5806485BDD6E8D6B91AB860E085E09C
:101030000E94D60160E08BE00E94D60161E089E069
:101040000E94D60161E089E00E94210189E294E0DA
:10105000909363008093620085B7837F846085BF2F
:101060008BB780688BBFE091E301F091E401C0830E
:10107000E091DF01F091E0011082E091E101F09157
:10108000E20187E680831092EB01E091E701F091A5
:10109000E801D083E091E501F091E6018081886963
:1010A0008083E091E501F091E60180818F7D80836E
:1010B00061E083E00E94D60161E082E00E94D601F7
:1010C00061E080E00E94D60183E090E090937E0290
:1010D00080937D0282E090E09093800280937F0273
:1010E00010928202109281021092850282E50E9483
:1010F000BD0180E30E94BD0180E00E94BD018AE045
:101100000E94BD0182E00E94BD0186E00E94BD01F7
:101110000E94940188EE90E00E9485066AEF70E0DC
:1011200080E090E00E942D020E9494018CEE90E0FD
:101130000E9485066AEF70E080E090E00E942D0238
:101140000E94940183E080937202C093730261E075
:101150000E94D60160E0809173020E94D60181E076
:101160008093740284EF90E00E945D058FEF90E021
:101170000E945D0586E191E00E945D0583E391E0B8
:101180000E9455060E9491030E9457068CE391E04D
:101190000E94550684E10E94EF030E9457068DE4E9
:1011A00091E00E94550685E00E94EF0300917502D0
:1011B000109176022091770230917802601B710BBA
:1011C000820B930B0E944C0E42E050E00E944706B7
:1011D0008BE591E00E94550685E00E943E0441E0C7
:1011E00050E00E9447068DECC82E8CEDD82E8FE47F
:1011F000E82E85E4F82EC0927902D0927A02E0922D
:101200007B02F0927C020E94190489E691E00E9420
:101210005D0583E391E00E9455060E9491030E94C0
:1012200057068CE391E00E94550684E10E94EF038B
:101230000E9457068DE491E00E94550685E00E94C9
:10124000EF030091750210917602209177023091A0
:101250007802601B710B820B930B0E944C0E42E0D4
:1012600050E00E9447068BE591E00E94550685E01C
:101270000E943E0441E050E00E94470685E891E06C
:101280000E945D0523E030E04FE851E060E070E04F
:10129000CB010E945B048091890290918A029F7722
:1012A00090938A0290918B029F7790938B02806833
:1012B000809389020E949F01C0927902D0927A02A3
:1012C000E0927B02F0927C020E94190460E089E0C7
:1012D0000E94210160ED77E080E090E00E942D0205
:1012E0000E949401C0E0D0E02FB7F8948091CB0128
:1012F0009091CC01A091CD01B091CE012FBF8093F0
:10130000C6019093C701A093C801B093C9012FB73C
:10131000F8948091CB019091CC01A091CD01B09136
:10132000CE012FBF8093C2019093C301A093C4014B
:10133000B093C50185E991E00E94550681E00E94C5
:101340003E0441E00E946B0583EA91E00E9455064D
:101350008AE00E943E0445E050E00E94470668E8AB
:1013600073E180E090E00E942D028091C60190918F
:10137000C701A091C801B091C9014091BE0150912F
:10138000BF016091C0017091C1018C019D01041BDE
:10139000150B260B370BB901A801413D57406105DC
:1013A000710508F49DC08093BE019093BF01A09386
:1013B000C001B093C1010E9494018FB7F894C0900E
:1013C000CB01D090CC01E090CD01F090CE018FBF49
:1013D0002FB7F8948091CB019091CC01A091CD01D1
:1013E000B091CE012FBF8C199D09AE09BF09883C71
:1013F0009105A105B10508F04CC0809173020E94CF
:10140000F800892B31F060E070E0CB010E942D02E2
:10141000DFCF81E00E943E040E94140E6093BA0167
:101420007093BB018093BC019093BD01C090B60145
:10143000D090B701E090B801F090B9016C157D052E
:101440008E059F05B1F030E020E040EB51E00E94B6
:101450005B048091C6019091C701A091C801B09131
:10146000C9018093C2019093C301A093C401B093BA
:10147000C5018091BA019091BB01A091BC01B091CE
:10148000BD018093B6019093B701A093B801B093CA
:10149000B9018091C2019091C301A091C401B091A2
:1014A000C50180329E44A105B105D0F00E9494018F
:1014B00084E00E94BD0160E0809172020E942101DF
:1014C00061E0809172020E94210185B78F74806271
:1014D00085BF85B7806485BF889585B78F7B85BFBD
:1014E000209709F401CF0E94CB02882309F4FCCE97
:1014F0000E940000F9CEABE0B0E0E1E8FAE00C9425
:10150000F90C7C013B018A01FC0117821682838160
:1015100081FFC8C1CE0101965C01F7019381F301FF
:1015200093FD859193FF81913F01882309F453C175
:10153000853239F493FD859193FF81913F01853286
:1015400029F4B70190E00E946B0CE7CF912C212C7D
:10155000312CFFE1F31538F08B3211F190F4803229
:1015600009F1833229F137FC3CC020ED280F2A30E5
:1015700050F536FE20C08AE0989E200D1124922E50
:1015800006C08D3291F0803371F7689430F8F30122
:1015900093FD859193FF81913F018111DACF21C0A5
:1015A000689431F8689432F8F2CF689433F8EFCF4A
:1015B000689434F8ECCFEAE02E9E200D1124222E00
:1015C000689435F8E4CF8E3229F436FC04C168946F
:1015D00036F8DDCF8C3619F4689437F8D8CF8836D2
:1015E000B1F2982F9F7D95549330E0F08336A1F1AE
:1015F0008337C1F1833509F063C02801F2E04F0E53
:10160000511CF801C080D180692D70E036FC02C009
:101610006FEF7FEFC6010E94550C4C01689437F8BC
:1016200082010AC00C5F1F4FFFE3F9838824839473
:10163000912C6501E89437F833FE2DC0522C8114AB
:10164000910471F5552009F468CFB70180E290E06C
:101650000E946B0C5A94F6CFF801808189830E5F4B
:101660001F4FE4CF2801F2E04F0E511CF801C0805B
:10167000D180692D70E036FC02C06FEF7FEFC601AC
:101680000E94600C4C018201D5CFB70180E290E04E
:101690000E946B0C2A942814190409F0B0F7CECFDD
:1016A000F60137FC859137FE81916F01B70190E01B
:1016B0000E946B0C51105A94F1E08F1A9108BFCF21
:1016C000843619F0893609F077C0F80137FE6BC00F
:1016D00060817181828193810C5F1F4FF32DFF76B2
:1016E0003F2E97FF09C090958095709561957F4F2B
:1016F0008F4F9F4F689437F82AE030E0A5010E9491
:101700009B0CC82ECA188C2C432C36FE0CC0E894B7
:1017100040F8C91440F434FE05C032FC03C0F32D78
:10172000FE7E4F2E892C44FE95C0FE01EC0DF11D6E
:101730008081803309F087C0242D297E422E842D9C
:101740008870582E43FC95C040FE8FC09C2C82149C
:1017500018F42C0C922C981844FE91C0B70180E329
:1017600090E00E946B0C42FE09C088E790E041FEC9
:1017700002C088E590E0B7010E946B0CC91408F420
:101780008AC0CA94D12C9FEFC91AD90ACA0CDB1C93
:10179000F60182916F01B70190E00E946B0CAC14CE
:1017A000BD04B1F74FCF60817181072E000C880B0B
:1017B000990B0E5F1F4F92CFD32CE894D4F82AE0F8
:1017C00030E0853739F1232D297FD22E8F3601F174
:1017D00048F48835A9F0F701868197812B96E2E1DC
:1017E0000C94150D803749F08837A9F7D4FE02C054
:1017F0006894D2F820E130E00DC06894D4F8F6CFB8
:1018000034FE03C0822F8660D82E20E132E002C071
:1018100028E030E0F801D7FE0FC06081718182813D
:1018200093810C5F1F4FA5010E949B0CC82ECA1804
:101830003D2CE89437F867CF6081718190E080E0BB
:101840000E5F1F4FF0CF42FC02C0839478CF839489
:10185000839475CF842D867809F471CFF6CFB701C4
:1018600080E290E00E946B0C83948214C0F3512CB0
:1018700073CF522C5818821408F46ECFF8CF842DF1
:10188000867809F47BCF8BE241FE80E247FC8DE253
:10189000B70190E071CFB70180E390E00E946B0C3C
:1018A0009A946CCF8FEF9FEF99CFFC010590615018
:1018B00070400110D8F7809590958E0F9F1F089566
:1018C000FC016150704001900110D8F7809590950F
:1018D0008E0F9F1F08950F931F93CF93DF93182FA1
:1018E000092FEB018B8181FD09C01FEF0FEF812FC5
:1018F000902FDF91CF911F910F91089582FF14C017
:101900002E813F818C819D81281739073CF4E88125
:10191000F981CF0101969983888310838E819F81FD
:1019200001969F838E83E3CFE885F985812F099502
:10193000892BA1F3DACFFA01AA27283051F12031FF
:1019400081F1E8946F936E7F6E5F7F4F8F4F9F4F53
:10195000AF4FB1E03ED0B4E03CD0670F781F891F95
:101960009A1FA11D680F791F8A1F911DA11D6A0F63
:10197000711D811D911DA11D20D009F468943F9116
:101980002AE0269F11243019305D3193DEF6CF0115
:101990000895462F4770405D4193B3E00FD0C9F7DB
:1019A000F6CF462F4F70405D4A3318F0495D31FD48
:1019B0004052419302D0A9F7EACFB4E0A69597959B
:1019C000879577956795BA95C9F700976105710571
:1019D00008959B01AC010A2E0694579547953795BB
:1019E0002795BA95C9F7620F731F841F951FA01D15
:1019F00008952F923F924F925F926F927F928F92B3
:101A00009F92AF92BF92CF92DF92EF92FF920F938D
:101A10001F93CF93DF93CDB7DEB7CA1BDB0B0FB697
:101A2000F894DEBF0FBECDBF09942A883988488854
:101A30005F846E847D848C849B84AA84B984C884EA
:101A4000DF80EE80FD800C811B81AA81B981CE0FE1
:101A5000D11D0FB6F894DEBF0FBECDBFED010895C6
:101A60005058BB27AA270E94480D0C94C20E0E9412
:101A7000B40E38F00E94BB0E20F039F49F3F19F4E9
:101A800026F40C94B10E0EF4E095E7FB0C94AB0E2B
:101A9000E92F0E94D30E58F3BA1762077307840721
:101AA000950720F079F4A6F50C94F50E0EF4E09568
:101AB0000B2EBA2FA02D0B01B90190010C01CA0108
:101AC000A0011124FF27591B99F0593F50F4503EB3
:101AD00068F11A16F040A22F232F342F4427585FA5
:101AE000F3CF469537952795A795F0405395C9F7BD
:101AF0007EF41F16BA0B620B730B840BBAF0915075
:101B0000A1F0FF0FBB1F661F771F881FC2F70EC013
:101B1000BA0F621F731F841F48F4879577956795E6
:101B2000B795F7959E3F08F0B0CF9395880F08F0D2
:101B30009927EE0F9795879508950E94870E08F4D0
:101B400081E008950E94B60D0C94C20E0E94BB0E57
:101B500058F00E94B40E40F029F45F3F29F00C9435
:101B6000AB0E51110C94F60E0C94B10E0E94D30ED4
:101B700068F39923B1F3552391F3951B550BBB27BC
:101B8000AA2762177307840738F09F5F5F4F220F01
:101B9000331F441FAA1FA9F335D00E2E3AF0E0E8F8
:101BA00032D091505040E695001CCAF72BD0FE2F42
:101BB00029D0660F771F881FBB1F261737074807D6
:101BC000AB07B0E809F0BB0B802DBF01FF2793588E
:101BD0005F4F3AF09E3F510578F00C94AB0E0C9499
:101BE000F60E5F3FE4F3983ED4F3869577956795BC
:101BF000B795F7959F5FC9F7880F911D96958795C3
:101C000097F90895E1E0660F771F881FBB1F6217E1
:101C100073078407BA0720F0621B730B840BBA0B9F
:101C2000EE1F88F7E09508950E941B0E6894B1118D
:101C30000C94F60E08950E94DB0E88F09F5798F0E2
:101C4000B92F9927B751B0F0E1F0660F771F881FC1
:101C5000991F1AF0BA95C9F714C0B13091F00E94DB
:101C6000F50EB1E008950C94F50E672F782F8827B4
:101C7000B85F39F0B93FCCF3869577956795B39502
:101C8000D9F73EF490958095709561957F4F8F4F71
:101C90009F4F0895E89409C097FB3EF49095809576
:101CA000709561957F4F8F4F9F4F9923A9F0F92F22
:101CB00096E9BB279395F695879577956795B795A0
:101CC000F111F8CFFAF4BB0F11F460FF1BC06F5F86
:101CD0007F4F8F4F9F4F16C0882311F096E911C098
:101CE000772321F09EE8872F762F05C0662371F0B9
:101CF00096E8862F70E060E02AF09A95660F771FCD
:101D0000881FDAF7880F9695879597F90895990FA8
:101D10000008550FAA0BE0E8FEEF16161706E807B5
:101D2000F907C0F012161306E407F50798F0621BD6
:101D3000730B840B950B39F40A2661F0232B242BAB
:101D4000252B21F408950A2609F4A140A6958FEFCA
:101D5000811D811D089597F99F6780E870E060E01C
:101D600008959FEF80EC089500240A941616170634
:101D700018060906089500240A941216130614067C
:101D800005060895092E0394000C11F4882352F0DF
:101D9000BB0F40F4BF2B11F460FF04C06F5F7F4F97
:101DA0008F4F9F4F089557FD9058440F551F59F07E
:101DB0005F3F71F04795880F97FB991F61F09F3F38
:101DC00079F087950895121613061406551FF2CF61
:101DD0004695F1DF08C0161617061806991FF1CFB1
:101DE00086957105610508940895E894BB276627D8
:101DF0007727CB0197F908950E94870E08F48FEF9B
:101E000008950E94140F0C94C20E0E94B40E38F074
:101E10000E94BB0E20F0952311F00C94AB0E0C9495
:101E2000B10E11240C94F60E0E94D30E70F3959F00
:101E3000C1F3950F50E0551F629FF001729FBB27C1
:101E4000F00DB11D639FAA27F00DB11DAA1F649F5D
:101E50006627B00DA11D661F829F2227B00DA11D10
:101E6000621F739FB00DA11D621F839FA00D611D96
:101E7000221F749F3327A00D611D231F849F600DB7
:101E8000211D822F762F6A2F11249F5750409AF0E0
:101E9000F1F088234AF0EE0FFF1FBB1F661F771F6C
:101EA000881F91505040A9F79E3F510580F00C9437
:101EB000AB0E0C94F60E5F3FE4F3983ED4F3869598
:101EC00077956795B795F795E7959F5FC1F7FE2BD7
:101ED000880F911D9695879597F90895FA01EE0F51
:101EE000FF1F309621053105A1F16115710561F4DF
:101EF0008038BFE39B0749F168949038810561F011
:101F00008038BFEF9B0741F099234AF5FF3FE10579
:101F10003105210519F1E8940894E795D901AA2320
:101F200029F4AB2FBE2FF85FD0F310C0FF5F70F421
:101F3000A695E0F7F73950F019F0FF3A38F49F779B
:101F40009F930DD00F9007FC9058089546F00C9485
:101F5000B10E60E070E080E89FE308954FE79F775F
:101F60005F934F933F932F930E946E102F913F9159
:101F70004F915F910E94010F0C94CB0F0E94870E2E
:101F8000880B990B089529F416F00C94AB0E0C9461
:101F9000F50E0C94B10E0E94DB0EA8F39638A0F754
:101FA00007F80F92E8942BE33AEA48EB5FE70E94C8
:101FB000170F0F920F920F924DB75EB70F920E94BC
:101FC000B610E4E5F0E00E94FD0F4F915F91EF91B4
:101FD000FF91E595EE1FFF1F49F0FE57E06844278B
:101FE000EE0F441FFA95E1F74195550B0E94301012
:101FF0000F9007FE0C9424100895DF93CF931F9346
:102000000F93FF92EF92DF927B018C01689406C0E0
:10201000DA2EEF010E94140FFE01E894A59125919C
:10202000359145915591A6F3EF010E94480DFE01AF
:102030009701A801DA9469F7DF90EF90FF900F9174
:102040001F91CF91DF9108959B01AC0160E070E09A
:1020500080E89FE30C94A20D0C94AB0E0C94EA1054
:102060000E94DB0ED8F39923C9F3940F511DA3F3FB
:102070009150504094F059F0882332F0660F771F4A
:10208000881F91505040C1F79E3F51052CF7880F93
:10209000911D9695879597F908955F3FACF0983E0E
:1020A0009CF0BB27869577956795B79508F4B16046
:1020B0009395C1F7BB0F58F711F460FFE8CF6F5F3E
:1020C0007F4F8F4F9F4FE3CF0C94F60E16F00C947A
:1020D000EA100C94B10E68940C94AB0E0E94DB0EC7
:1020E000A8F39923C1F3AEF3DF93CF931F930F931C
:1020F000FF92C92FDD2788232AF02197660F771FCB
:10210000881FDAF720E030E040E85FEB9FE3883992
:1021100020F0803E38F021968F770E94310DECE759
:10212000F0E004C00E94310DE9EAF0E00E94FD0FEA
:102130008B01BE01EC01FB2E6F5771097595771F5E
:10214000880B990B0E944C0E28E132E741E35FE3D4
:102150000E94140FAF2D9801AE01FF900F911F91B7
:10216000CF91DF910E94480D0C94C20EFA01DC0160
:10217000AA0FBB1F9B01AC01BF5728F422273327AE
:102180004427507820C0B75190F4AB2F00244695D7
:1021900037952795011CA395D2F3002071F0220FEB
:1021A000331F441FB395DAF30ED00C94300D613019
:1021B0007105A0E88A07B94630F49B01AC01662797
:1021C000772788279078309621F0208331834283C7
:1021D000538308959F3F31F0915020F48795779570
:1021E0006795B795880F911D9695879597F90895EE
:1021F000A1E21A2EAA1BBB1BFD010DC0AA1FBB1F0B
:10220000EE1FFF1FA217B307E407F50720F0A21B7C
:10221000B30BE40BF50B661F771F881F991F1A94E9
:1022200069F760957095809590959B01AC01BD0113
:10223000CF010895052E97FB1EF400940E943111E2
:1022400057FD07D00E94F81007FC03D04EF40C9401
:10225000311150954095309521953F4F4F4F5F4F2D
:10226000089590958095709561957F4F8F4F9F4F02
:102270000895EE0FFF1F0590F491E02D09940F9340
:102280001F93CF93DF938230910510F482E090E0AA
:10229000E0919702F091980230E020E0B0E0A0E0F9
:1022A000309799F42115310509F44AC0281B390BE0
:1022B00024303105D8F58A819B816115710589F13A
:1022C000FB0193838283FE0111C040815181028111
:1022D000138148175907E0F04817590799F41097E8
:1022E00061F012960C93129713961C933296CF01BD
:1022F000DF91CF911F910F91089500939702109352
:102300009802F4CF2115310551F04217530738F0E8
:10231000A901DB019A01BD01DF01F801C1CFEF0185
:10232000F9CF9093980280939702CDCFFE01E20FF0
:10233000F31F819391932250310939832883D7CF9A
:102340002091950230919602232B41F42091680050
:102350003091690030939602209395022091660097
:10236000309167002115310541F42DB73EB74091FA
:102370006A0050916B00241B350BE0919502F0919F
:102380009602E217F307A0F42E1B3F0B281739071C
:1023900078F0AC014E5F5F4F2417350748F04E0FC1
:1023A0005F1F5093960240939502819391939FCF24
:1023B000F0E0E0E09CCFCF93DF930097E9F0FC01E1
:1023C000329713821282A0919702B0919802ED0188
:1023D00030E020E01097A1F420813181820F931F1B
:1023E00020919502309196022817390709F061C0B3
:1023F000F0939602E0939502DF91CF910895EA0160
:10240000CE17DF07E8F54A815B819E014115510532
:10241000B1F7E901FB83EA8349915991C40FD51FB4
:10242000EC17FD0761F4808191810296840F951F5E
:10243000E90199838883828193819B838A83F0E079
:10244000E0E012968D919C9113970097B9F52D912C
:102450003C911197CD010296820F931F2091950216
:10246000309196022817390739F6309751F51092B6
:10247000980210929702B0939602A0939502BCCF57
:10248000D383C28340815181840F951FC817D90718
:1024900061F44E5F5F4F88819981480F591F5183C6
:1024A00040838A819B81938382832115310509F0C2
:1024B000B0CFF0939802E09397029ECFFD01DC012C
:1024C000C0CF13821282D7CFAEE0B0E0EAE6F2E1ED
:1024D0000C94070D0D891E898F89988D26E02C8319
:1024E0001A83098397FF02C080E090E801979E83DA
:1024F0008D83AE01455E5F4F698D7A8DCE01019669
:102500000E947B0A4D815E8157FD0AC02F8138856C
:10251000421753070CF49A01020F131FF80110829F
:0C2520002E96E4E00C94230DF894FFCFFD
:10252C0060020000000000009902800033000002ED
:10253C0000007D603E7A635B5F707F7B0000000073
:10254C00000000774F1D6E1F175D676068000D540B
:10255C00464E3773065B0F6D0000006B3E000000AB
:10256C00000800774F1D6E1F175D676068000D54E3
:10257C00464E3773065B0F6D0000006B3E00050086
:10258C00000000000361028E024C03BF029D02B1E9
:10259C0002000000006C03C3060D0A006E616E00A1
:1025AC00696E66006F766600687069007620312E61
:1025BC00302E300048583731312044656D6F00495A
:1025CC006E697469616C697A696E672074686520DC
:1025DC007363616C65004265666F72652073657428
:1025EC0074696E6720757020746865207363616C04
:1025FC00653A00726561643A20090900726561648C
:10260C0020617665726167653A2009090067657417
:10261C002076616C75653A20090900676574207530
:10262C006E6974733A2009090041667465722073EF
:10263C00657474696E6720757020746865207363A7
:10264C00616C653A0052656164696E67733A002586
:10265C0030366C69006F6E652072656164696E67F7
:10266C003A0900097C20617665726167653A090058
:06267C0025366C69000028
:00000001FF
